:100000000C94DD010C9426020C9426020C9426021A
:100010000C9426020C9426020C9426020C942602C0
:100020000C9426020C9426020C94E81C0C94BE1D21
:100030000C942D140C9426020C9426020C94260287
:100040000C9426020C9426020C9426020C94260290
:100050000C9426020C9495140C9426020C942602FF
:100060000C9426020C9426020C9426020C94260270
:100070000C9426020C9426020C9426020C94260260
:100080000C9426020C9426020C9426020C94260250
:100090000C9426020C942602FC02FE0209030003C3
:1000A00002030403060308030B030D030F031A03E3
:1000B000110313031503170319031C033E0A3E0A19
:1000C000700A700AAE0ACC0A320C320C0E0B320CDB
:1000D000B10BB10B220C320C320C2B0CBE0BBE0B35
:1000E000BE0BBE0BBE0BBE0BBE0BBE0BBE0BBE0BC8
:1000F000BE0BBE0BBE0BBE0BBE0BBE0BCF0BDD0B88
:10010000E40BEB0BF50BC30CC30CD50CD50CCC0CD2
:10011000D50CD50CD50CC30CC30CD10CD50CD50CFF
:10012000D10C2F1E561E4E1F561E4E1FA21EC51E40
:100130004E1F1C1F2B1FF1A1F1A235021E0220022F
:10014000220224022602E300000000000000140046
:100150001A00090013000A000D000F0018001C000F
:100160002A00040015001600170007000B001100FC
:1001700008000C0012001D001B00060019000500FD
:100180000E001000360037002800E0000020E200DA
:10019000E1002C0001202C00E1002900380035008E
:1001A0001F02210223022502270201000000000095
:1001B0000000010042004300440045002F003000D1
:1001C00031004C00010001003E003F0040004100B2
:1001D0000100330034000100010001003A003B003F
:1001E0003C003D0001000100010001000100010090
:1001F00001000100010001000100010001000100F7
:100200000000010001000100010001000100025393
:100210000000000000000100520001000100010088
:1002200001002400250026002D00500051004F0041
:10023000010001002D022100220023002E020100F6
:10024000010001000100010027001E001F00200026
:100250002E0001000100010001002B00010001003F
:100260000100010001000403300000000A03470000
:10027000480036003000000012036700650065008A
:100280006B006800610063006B0000000403090458
:1002900009025400030100A0FA090400000103014F
:1002A0000100092111010001224000070581030816
:1002B000000A0904010001030102000921110100E3
:1002C00001224D000705820308000A09040200010B
:1002D00003000000092111010001223600070583F7
:1002E0000308000A1201100100000008EDFE606022
:1002F00001000102030105010980A1018502160127
:10030000002603001A81002A8300751095018100E0
:10031000C0050C0901A1018503160100269C021AE3
:1003200001002A9C02751095018100C00501090297
:10033000A1010901A10005091901290515002501DF
:10034000950575018102950175038101050109304B
:1003500009311581257F95027508810609381581B7
:10036000257F950175088106050C0A38021581253F
:100370007F950175088106C0C005010906A1010528
:100380000719E029E71500250195087501810295F7
:100390000175088101050819012905950575019167
:1003A000029501750391010507190029FF15002623
:1003B000FF00950675088100C00011241FBECFEF15
:1003C000D0E2DEBFCDBF04B603FE27C08091FD01A1
:1003D0009091FE01A091FF01B09100028730904BF7
:1003E000A740B04BD1F41092FD011092FE01109283
:1003F000FF011092000214BE84B7877F84BF0FB63E
:10040000F894A895809160008861809360001092B4
:1004100060000FBEE0E0F8EF099511E0A0E0B1E068
:10042000EEEEFFE300E00BBF02C007900D92A23397
:10043000B107D9F721E0A2E3B1E001C01D92AD3FC1
:10044000B207E1F70E94161A0C94F51F0C940000F5
:1004500061110BC0FC018281882321F085EE0E948E
:10046000950803C085EE0E94930980E090E008950E
:10047000089581E0089581E008950C943B020E9464
:100480001B13811102C00E9493130C942E060C942E
:10049000300608950C9449020C944A0208950E9473
:1004A000AF0C0E944E022FEF84E39CE0215080406D
:1004B0009040E1F700C000000C94BB14FF920F9332
:1004C0001F93CF93DF938C01FC01C081D181809178
:1004D0006101811113C08281882349F0CE010E94FD
:1004E0000E12F82E682FCE010E94B71104C0CE0163
:1004F0000E94E211F82EBE018F2D04C0CE010E9491
:100500000E12BE010E94CD03EC01B8010E943D0213
:10051000882309F43AC1C631FCE5DF0709F401C1BB
:1005200070F4C130ECE5DE0751F120F4C115DC4573
:10053000F1F01EC1C531ECE5DE07E0F119C1C83D9F
:10054000FCE5DF0709F4D2C050F4C63DECE5DE0758
:1005500009F482C0C73DDC4509F4A1C009C1CB3D07
:100560008CE5D807B9F0CC3DDC45D9F001C1F801E4
:100570008281882309F409C10E944F0206C1F80153
:100580008281882309F401C18091D2018160809326
:10059000D201FBC0F8018281882309F4F6C080E013
:1005A00006C0F8018281882309F4EFC082E00E942E
:1005B000B01AEBC0F8018281882309F4DEC00E94E2
:1005C0001B13811102C00E9493130E94381390E004
:1005D0009093EF018093EE01FE01E350FC45E23180
:1005E000F10530F4E45BFF4F8091EE010C94961F0F
:1005F0008091EE01816027C0826025C0846023C0A5
:10060000806121C080621FC080641DC080681BC0E3
:100610008460886018C08E7F16C08D7F14C08B7F69
:1006200012C08F7E10C08F7D0EC08F7B0CC08F7765
:100630000AC08B7F877F07C087FB222720F991E0C4
:10064000922790FB87F98093EE018091EE010E9442
:100650003C130E94AF0C99C0F8018281882351F0AD
:10066000109237010E945F149093340180933301FC
:1006700082E022C08091370181110FC08091330147
:10068000909134010E946B14883C910530F486E20D
:100690000E94950886E20E94930982E024C0F80136
:1006A0008281882361F0109238010E945F14909338
:1006B00036018093350180E20E94FB0966C080917B
:1006C000380181110FC080913501909136010E944F
:1006D0006B14883C910530F487E20E94950887E20C
:1006E0000E94930980E20E94020A4FC0F8018281B1
:1006F0008111D9CF809138018111F4CF80913501DA
:10070000909136010E946B14883C910558F780E265
:100710000E94020A88E20E94950888E20E949309DA
:1007200034C00E94DF12982FF801828120910001CD
:1007300030910101882379F09A7A81E009F480E010
:1007400080933201911102C069E201C065E3C901E1
:100750000E94C9130AC080913201811102C069E26E
:1007600001C065E3C9010E94CB130E94AC120DC009
:1007700081E08093370180933801C801DF91CF91E8
:100780001F910F91FF900C94390280E0DF91CF917F
:100790001F910F91FF900895089522E3829FC00159
:1007A0001124FC012AE0729FE00DF11D1124E60FD7
:1007B000F11DEE0FFF1FE65CFE4F859194910895A9
:1007C000880F991FFC01EA5CFE4F85919491089572
:1007D000CF93DF930E94CD030E948C05EC0181151D
:1007E000904508F041C0C11580E4D80708F01CC14D
:1007F000C83ED10510F5C03ED10508F089C1C83A00
:10080000D10578F4C53AD10508F09EC0C130D105B4
:1008100009F47EC108F435C1C430D10508F078C1AF
:1008200030C1CD3BD10508F49AC0C03CD10508F4D5
:1008300028C1CE01805C9109E9C0C11590E2D907B9
:1008400058F4C11521E0D20708F062C1C03FD105BC
:1008500008F417C1D0655CC1C11580E3D80708F062
:10086000D9C0CE019F70D2C0C11595E5D90708F057
:1008700044C0C11524E5D20708F0EDC0C11582E5DA
:10088000D80710F5C11591E5D90708F0D0C0CE0101
:1008900074E0969587957A95E1F7282F23703C2F81
:1008A000337081E090E002C0880F991F3A95E2F71B
:1008B0009C68922BCF70C695C69520E2C29FE0013E
:1008C0001124C82BD92B24C19E01237033278C2FD0
:1008D00086958695C115D34508F0AEC0C1E0D0E03D
:1008E00002C0CC0FDD1F2A95E2F720E2829FC001F3
:1008F0001124C82BD92BDC680BC1C11529E5D207FF
:1009000080F4C11588E5D80708F0AAC0C11596E59E
:10091000D90708F0B6C0CF71DD27DC2FCC27D06215
:10092000F7C0CE01C1152AE5D20708F49EC0905643
:100930008115904208F0A5C08D2F8F710E94080686
:10094000DD27D0628F719BC0C53AD10509F49CC0E8
:10095000C63AD10509F09BC0C2E8D0E4D9C0C83A74
:10096000D10509F497C0C93AD10509F496C0CA3A2D
:10097000D10509F495C0CB3AD10509F494C0CC3A1D
:10098000D10509F493C0CB3BD10509F492C0CC3B0F
:10099000D10509F491C0CD3AD10509F490C0C03B0E
:1009A000D10509F48FC0CE3AD10509F48EC0CF3AF3
:1009B000D10509F48DC0C13BD10509F48CC0C23BFF
:1009C000D10509F48BC0C33BD10509F48AC0C43BEF
:1009D000D10509F489C0C53BD10509F488C0C63BDF
:1009E000D10509F487C0C73BD10509F486C0C83BCF
:1009F000D10509F485C0C93BD10509F484C0CA3BBF
:100A0000D10509F483C0C0E0D4E482C00E94E003B1
:100A1000EC017EC0CE019927D3FF03C0EC01D86C56
:100A200077C0EC01D06C74C0DF70D06A71C0DC2F6D
:100A3000CC27C16FD06A6CC0C1E0D0E002C0CC0F3F
:100A4000DD1F2A95E2F720E2829FC0011124C82B06
:100A5000D92BDA685DC0DC2FCC27C46FD06A58C0B0
:100A6000DC2FCC27C06FD06A53C024E096958795C1
:100A70002A95E1F78F70CF70C06ED0E0D06AD82B86
:100A800047C0C0E0D0E044C0C1E8D0E441C0C3E802
:100A9000D0E43EC0C2EED4E43BC0C9EED4E438C0DA
:100AA000CAEED4E435C0C5EBD4E432C0C6EBD4E41E
:100AB0002FC0C3EBD4E42CC0C4EBD4E429C0C7EBF3
:100AC000D4E426C0CCECD4E423C0CDECD4E420C0E4
:100AD000C3E8D5E41DC0CAE8D5E41AC0C2E9D5E42C
:100AE00017C0C4E9D5E414C0C1E2D6E411C0C3E222
:100AF000D6E40EC0C4E2D6E40BC0C5E2D6E408C01A
:100B0000C6E2D6E405C0C7E2D6E402C0CAE2D6E433
:100B1000CE01DF91CF9108958238910549F1B0F46B
:100B20008133910509F459C048F48932910509F4DB
:100B30004FC08A32910509F455C008958533910557
:100B400009F441C08933910599F00895833E9105D8
:100B500031F138F4803E910591F0823E9105A9F083
:100B60000895863E910501F1873E910539F108957A
:100B70002091EE0120FD3BC021FD39C008958091F8
:100B8000EE0180FF34C089E341C08091EE0182FF15
:100B900030C08091EE0184FD2EC083EE37C080917D
:100BA000EE0182FD26C0F5CF8091EE0183FF25C0C6
:100BB0008091EE0184FD1FC087EE28C08091EE0178
:100BC00083FD1BC0F5CF8091EE0185FD18C019C0D3
:100BD0008091EE0185FD15C012C08091EE0186FD69
:100BE00012C013C08091EE0186FD0FC00CC080EED4
:100BF0000DC082EE0BC080E009C086EE07C089E21E
:100C000005C085E303C08AE201C081E390E0089556
:100C10009091EE0192FF0DC0282F2871283019F411
:100C2000877F846006C0282F2471243011F48B7FC5
:100C3000886093FF0DC0282F2871283119F4877E12
:100C4000846106C0282F2471243111F48B7E8861C1
:100C500094FD877E089508950C942B060C942C0621
:100C60000C943802CF93DF93ADE1B1E042E251E062
:100C700061E070E08D91E82FE295EF70F0E091A1D6
:100C80008F709B0101C0220F8A95EAF7822F809511
:100C9000892381A34A175B0769F7A3E1B1E04DE11E
:100CA00051E061E070E08D91E82FE295EF70F0E0A7
:100CB00021A18F70EB0102C0CC0FDD1F8A95E2F7F6
:100CC000CE019C2F9095922391A392A1892B82A370
:100CD0004A175B0741F7E3E4F1E0A9E3B1E08DE4F3
:100CE00091E0119211921D921D928E179F07C9F7E4
:100CF000DF91CF910C943F022F923F924F925F92DF
:100D00006F927F928F929F92AF92BF92CF92DF921B
:100D1000EF92FF920F931F93CF93DF932DE1C22E9B
:100D200021E0D22E09E311E0E801EE24E394F12C56
:100D3000662463945E018880998019821882D601A6
:100D40008D916D01E82FE295EF70F0E021A18F7099
:100D5000A70102C0440F551F8A95E2F7CA01242B50
:100D600021A322A1742E7094272122A350EA5A9520
:100D7000F1F793E1292E91E0392E20E030E0D10106
:100D80005D901D01452D42954F7050E0DA0190961F
:100D90004C9068817981552D5F70D70102C0AA0FF0
:100DA000BB1F5A95E2F7AD01442141F4A701022E81
:100DB00002C0440F551F0A94E2F702C040E050E021
:100DC000462B572B598348832F5F3F4F2A303105DD
:100DD000B1F691A1792271A292A1892B82A32296C8
:100DE000F501808191818816990641F060924D014C
:100DF0000E945F1490934F0180934E01F1E0C33441
:100E0000DF0709F097CF80914D018823B1F08091E1
:100E10004E0190914F010E946B14069770F0E3E42D
:100E2000F1E0D8018D919D918D0181939193B1E075
:100E300003341B07B1F710924D010E94470281E075
:100E4000DF91CF911F910F91FF90EF90DF90CF90A6
:100E5000BF90AF909F908F907F906F905F904F90DA
:100E60003F902F900895E82FF0E0EE0FFF1FED5B0D
:100E7000FE4F80819181089508959093550180934C
:100E800054010895E0915401F0915501309721F0FB
:100E90000190F081E02D099480E00895E0915401E3
:100EA000F0915501309721F00280F381E02D0994F3
:100EB0000895E0915401F0915501309721F004809C
:100EC000F581E02D0994089520915201309153014C
:100ED0002817390771F09093530180935201E091E4
:100EE0005401F0915501309721F00680F781E02DF3
:100EF0000994089520915001309151012817390724
:100F000071F09093510180935001E0915401F09160
:100F10005501309721F00084F185E02D0994089562
:100F200085B7806885BF85B7806885BF08950895B7
:100F30000E9490070C94970781E008950E94561430
:100F40000E9432060C942B155F926F927F928F92C3
:100F50009F92AF92BF92CF92DF92EF92FF920F9348
:100F60001F93CF93DF93CDB7DEB72A970FB6F894D0
:100F7000DEBF0FBECDBF0E947C060E949C07811180
:100F800011C08FEF89838A831B820E945F14816066
:100F9000782F9D838C8349815A816B818D810E943A
:100FA000610856C097E5692E91E0792E00E010E0C7
:100FB00088248394912C502E802F0E9433076C013B
:100FC000F301A190B1903F01A826B926A114B10464
:100FD00031F40F5F1F4F0530110569F7D2CF8091B3
:100FE000D20181FD0E943C0780E090E07401082E50
:100FF00002C0EE0CFF1C0A94E2F795012E213F215E
:10100000232B09F18E835F82CE20DF2081E0CD2863
:1010100009F480E088870E945F148160782F9A87A6
:1010200089874E815F8168858A850E946108000FEB
:10103000111FF801E95AFE4F80819181E826F926B7
:10104000F182E08205C001968A30910579F6C1CF20
:101050000E94CE170E944207909156018917D9F03D
:101060000E944207809356012A960FB6F894DEBF7D
:101070000FBECDBFDF91CF911F910F91FF90EF90E9
:10108000DF90CF90BF90AF909F908F907F906F90A8
:101090005F900C944C022A960FB6F894DEBF0FBEF8
:1010A000CDBFDF91CF911F910F91FF90EF90DF9017
:1010B000CF90BF90AF909F908F907F906F905F90F8
:1010C0000895CF93DF93CDB7DEB72B970FB6F89483
:1010D000DEBF0FBECDBF4F83588769877A878B8766
:1010E000DE01119686E0FD0111928A95E9F785E00F
:1010F000FE01379601900D928A95E1F749815A8158
:101100006B817C818D819E810E947C0F2B960FB616
:10111000F894DEBF0FBECDBFDF91CF910895FC01E3
:10112000808191810E944D120895882309F4FAC0AC
:101130008238C1F40E94420781FDF4C069E38091C6
:101140000001909101010E94C9130E94AC122FEF7F
:1011500081EE94E0215080409040E1F700C0000013
:1011600069E319C08338F9F40E94420780FDDAC0B0
:1011700063E580910001909101010E94C9130E94D2
:10118000AC122FEF81EE94E0215080409040E1F7C7
:1011900000C0000063E580910001909101010E9470
:1011A000CB130C94AC128438C1F40E94420782FD28
:1011B000B9C067E480910001909101010E94C913B8
:1011C0000E94AC122FEF81EE94E0215080409040BD
:1011D000E1F700C0000067E4DECF9CEF980F913A82
:1011E00040F4682F80910001909101010E94C91381
:1011F000D8CF90E2980F983050F4877091E001C0FA
:10120000990F8A95EAF7892F0E94E212CACF9BE5CF
:10121000980F933070F4853A29F0863A31F083E8DC
:1012200090E005C081E890E002C082E890E00C9474
:10123000640798E5980F953108F06EC0883A61F11F
:10124000893A69F18A3A71F18B3A79F18C3A81F1F4
:101250008B3B89F18C3B91F18D3A99F1803BA1F167
:101260008E3AA9F18F3AB1F1813BB9F1823BC1F1DC
:10127000833BC9F1843BD1F1853BD9F1863BE1F158
:10128000873BE9F1883BF1F1893BF9F18A3B09F4AD
:101290003FC080E090E03EC082EE90E03BC089EE2F
:1012A00090E038C08AEE90E035C085EB90E032C027
:1012B00086EB90E02FC083EB90E02CC084EB90E0B5
:1012C00029C087EB90E026C08CEC90E023C08DEC29
:1012D00090E020C083E891E01DC08AE891E01AC048
:1012E00082E991E017C084E991E014C081E292E0C4
:1012F00011C083E292E00EC084E292E00BC085E26E
:1013000092E008C086E292E005C087E292E002C067
:101310008AE292E00C947A07803F20F00E94D61671
:101320000C94C3170895882309F464C0823879F4B3
:101330000E94420781FF5EC069E3809100019091A5
:1013400001010E94C9130E94AC1269E310C08338E6
:10135000B1F40E94420780FF4DC063E58091000117
:10136000909101010E94C9130E94AC1263E5809123
:101370000001909101010E94CB130C94AC128438AF
:1013800079F40E94420782FF35C067E48091000132
:10139000909101010E94C9130E94AC1267E4E7CF4B
:1013A0009CEF980F913A10F4682FE1CF90E2980FDC
:1013B000983050F4877091E001C0990F8A95EAF750
:1013C000892F0E94E812D9CF9BE5980F933020F423
:1013D00080E090E00C94640798E5980F953120F434
:1013E00080E090E00C947A07803F20F00E943E1746
:1013F0000C94C3170895882321F00E94E2120C94E4
:10140000AC120895882321F00E94E8120C94AC12CB
:1014100008958F929F92AF92BF92DF92EF92FF92C8
:101420000F931F93CF93DF937C01D62FC72FFC011F
:10143000058102950F70128111110E94FF120E9406
:10144000A512882379F0112369F080E28D0F88308E
:1014500048F082E00E948E120E94A51291E0D82EE0
:10146000D92601C0D12CBC2EB2948FE0B8228B2D8E
:1014700090E0FC01E25AFF4F0C94961F8C2F807F66
:10148000CF70882311F0C295C07F112399F0CC232F
:1014900009F4C3C180E28D0F883010F0D11104C06F
:1014A0008C2F0E94E21203C08C2F0E94F2120E9425
:1014B000AC12B3C18D2F0E949309CC2309F4D2C181
:1014C00080E28D0F883010F0D11104C08C2F0E9463
:1014D000E81203C08C2F0E94F8120E94AC12C2C105
:1014E0008C2F807FCF70803211F0C295C07FDD23BA
:1014F00019F0D130C9F022C0112371F0002341F05E
:10150000013031F40E9418138C2B0E941213AAC1CF
:101510000E9418138C2B3AC1002319F0013009F4F2
:10152000A1C10E94151318C0112321F0063008F044
:1015300099C10EC0053008F095C10EC0112351F0BD
:10154000002331F0F701858180FF67C18F708583AB
:101550008C2F1CC1011172C18C2F1EC18C2F86953E
:101560008695837019F0813061F07CC1112321F0E0
:101570008D2F9C2F937002C080E090E00E94640742
:101580007EC1112321F08D2F9C2F937002C080E02B
:1015900090E00E947A0773C11123F9F0D53F51F012
:1015A000D63F71F0D43FA9F48091E8019091E90110
:1015B00081600BC08091E8019091E901826005C0D3
:1015C0008091E8019091E90184609093E901809312
:1015D000E8018D2F0E94D6161EC0D53F51F0D63F90
:1015E00071F0D43FA9F48091E8019091E9018E7FD8
:1015F0000BC08091E8019091E9018D7F05C0809139
:10160000E8019091E9018B7F9093E9018093E801D3
:101610008D2F0E943E170E94C31731C18C2F8370FB
:1016200009F04CC0111127C12D2F22952695277046
:10163000220F220F6D2F6F70862F90E0A0E0B0E098
:101640004C015D01022E04C0880C991CAA1CBB1C15
:101650000A94D2F7D4FF12C08FE090E0A0E0B0E08F
:1016600004C0880F991FAA1FBB1F2A95D2F7BC017F
:10167000CD01609570958095909503C060E070E015
:10168000CB01C695C695C370C23051F080F468296D
:1016900079298A299B29C13071F00E94CD10EBC0B5
:1016A000682979298A299B290E94DF10E4C00E94B9
:1016B000CD10C501B4010E94BB10DDC0112319F08B
:1016C0008C2F817001C08695882309F4D4C02D2FFA
:1016D000229526952770220F220F6D2F6F70862F6F
:1016E00090E0A0E0B0E04C015D01022E04C0880C47
:1016F000991CAA1CBB1C0A94D2F7D4FF12C08FE01D
:1017000090E0A0E0B0E004C0880F991FAA1FBB1FA3
:101710002A95D2F7BC01CD01609570958095909582
:1017200003C060E070E0CB01C695C695C370C230BF
:1017300051F080F4682979298A299B29C13071F0F8
:101740000E94921198C0682979298A299B290E94B0
:10175000A41191C00E949211C501B4010E94801190
:101760008AC08D2F90E0FC01E05EF109E531F105C2
:1017700008F04FC0E259FF4F0C94961FDF708C2F7A
:101780008F71112331F00E9419118D2F0E94FB09D6
:1017900069C00E943A118D2F0E94020A63C0112372
:1017A00041F0053008F05EC08C2F8F710E945F11F0
:1017B00059C0063008F056C0F7CF112339F08C2FEE
:1017C0008F710E9419114EC01123C9F38C2F8F7194
:1017D0000E943A1147C0112329F08C2F8F710E946B
:1017E000041140C00E94FF103DC0112349F0CF7189
:1017F0008C2F0E94191163E08C2F0E94851232C039
:1018000081E00E948E12023068F182E00E948E1206
:1018100029C0112331F0002391F28D2F0E949508E9
:1018200021C0002399F2D93349F4FFEF27EE83E07A
:10183000F15020408040E1F700C000008D2F0E9451
:10184000930910C04C2F4F706D2FC7010E942802C2
:101850000E942A1014C04C2F4F706D2FC7010E9498
:10186000CC030DC098E0B91631F0B91640F086EF00
:101870008B0D823020F40E9442070E944C02DD2032
:10188000E1F00E94811280FD18C0F70112820E94CF
:101890007B120E941911C7010E94690C0E947B12E1
:1018A000DF91CF911F910F91FF90EF90DF90BF904C
:1018B000AF909F908F900C943A11DF91CF911F9130
:1018C0000F91FF90EF90DF90BF90AF909F908F901F
:1018D00008950F931F93CF93DF93EC019881898133
:1018E0002B813C81232B31F08F3F31F481E09F3FEE
:1018F00019F403C081E001C080E080FD13C0CE0177
:101900000E945E02882371F0688179818A810E9439
:1019100058128C010E94B6110E94A710B801CE0186
:101920000E94090ADF91CF911F910F9108950E94A3
:10193000FF120E940F1380910001909101010E94FB
:10194000CD130E94AC120E9465180E94C31780E05C
:1019500090E00E94640780E090E00C947A070E9477
:10196000EF120C94970C0E944D12E92FE295EF7044
:101970004E2F50E0FA013297EE30F105B0F4ED57FA
:10198000FF4F0C94961F803F91F018F4803E68F44E
:101990000EC0843F51F40BC0803E48F0813F29F4D3
:1019A00006C093FB882780F9089580E0089581E0C0
:1019B0000895CF93DF9300D000D01F92CDB7DEB74C
:1019C0000F900F900F900F900F90DF91CF9108958F
:1019D000CF93DF9300D000D000D0CDB7DEB72696EE
:1019E0000FB6F894DEBF0FBECDBFDF91CF91089543
:1019F0001F93CF93DF93C091620116E08091630142
:101A0000C81799F0D0E01C9FF0011D9FF00D112424
:101A1000EC59FE4F408151816281738184819581AF
:101A20000E94E80C2196C770E9CFDF91CF911F91FA
:101A300008954091940150919501609196017091A3
:101A4000970180919801909199010C94E80CCF93A3
:101A50008091990182958F7009F05FC08091960105
:101A6000882309F45AC080916201B091630170919A
:101A70009401A0919501409197015091980191E0B6
:101A80007F3F09F090E0692FC6E08B1709F445C04D
:101A90004115510521F0AF3F21F020E003C021E0C6
:101AA00001C0262F90E020FD35C0C89FF001C99FDE
:101AB000F00D1124EC59FE4F21812A132BC02081F7
:101AC000271328C02281211125C0238134812417A6
:101AD000350710F421503109241B350B283C310502
:101AE000C8F4209199012F7020612093990126E07C
:101AF000289FF001299FF00D1124E759FE4F8081A6
:101B00008F708061808384E991E00E94690CCF919D
:101B10000C94F80C01968770B8CFCF910895AF92CE
:101B2000BF92CF92DF92EF92FF920F931F93CF93CA
:101B3000DF93CDB7DEB761970FB6F894DEBF0FBE67
:101B4000CDBF8C0185E0F801DE011D9601900D925C
:101B50008A95E1F7D8014C9111965C9111971296F4
:101B6000EC90309194016091950180919701909152
:101B70009801009731F06F3F31F421E03F3F19F4B5
:101B800003C021E001C020E0B22FB170BB2E20FDC8
:101B900060C1F801C380D480A0909601AA2009F406
:101BA000EEC020919901C816D90628F0D601A81BCD
:101BB000B90BCD0104C0809590958C0D9D1DFF241F
:101BC000F394883C910580F0F12C207F09F09CC0B3
:101BD0007C2DD98AC88A6E2D89890E94D90C84E906
:101BE00091E00E94690C2DC1822F807F09F054C0C2
:101BF000561314C0431312C0FE2CE1100FC02F70F7
:101C00002061209399010E94190D84E991E00E94BE
:101C1000690C80919901F80185835CC1CD2831F070
:101C20005F3F31F481E04F3F19F403C081E001C010
:101C300080E080FD03C081E08E2502C080E090E05E
:101C4000F82FF170FF2E80FF1CC08091620120915F
:101C5000630136E0821709F41AC190E0389FF00161
:101C6000399FF00D1124EC59FE4F6181561306C0C7
:101C70006081461303C06281E61203C0019687703B
:101C8000E9CFFE2CEE2009F425C1809199018160F5
:101C900080939901F12C1EC1561309C0431307C04C
:101CA000E11005C080919901F8018583A4C04D879A
:101CB0005E878D859E850E94B30C882379F1EE2086
:101CC00069F120919901822F82958F7090E002979F
:101CD00074F0809194019091950198878F83198673
:101CE000DB86CA862C87CE0107960E94690C86E0A7
:101CF000F801A4E9B1E001900D928A95E1F70E9404
:101D0000270D0E94190D0DC0561771F04D875E8783
:101D10008D859E850E94B30C81111AC0C8010E9456
:101D2000690CFF24F394D6C04313F0CFE110EECF3B
:101D300080919901F8018583C8010E94690C86E0B1
:101D4000E4E9F1E0DF011D928A95E9F7FA2CC2C0BF
:101D5000EE2021F320919901822F82958F7090E0DF
:101D600002972CF280919401909195019A83898336
:101D70001B82DD82CC822E83CE010196B6CFC8169F
:101D8000D90628F0F601E81BF90BCF0104C08095B5
:101D900090958C0D9D1D883C910548F0F12C7C2D73
:101DA000D98AC88A6E2D89890E94D90C4AC0FE2C16
:101DB000EE2009F4B3CF561333C0431331C0209142
:101DC000990120FD24C0822F82958F70482F50E00A
:101DD00041155105E1F0D80115962C9315974F3018
:101DE000510549F08F5F982F9295907F822F8F70C9
:101DF000892B15968C93C8010E94690C86E0F80126
:101E0000A4E9B1E001900D928A95E1F73DC086E02A
:101E1000F801A4E9B1E001900D928A95E1F75AC06A
:101E20004D875E878D859E850E94B30C81115FCFA3
:101E300080919901816080939901C8010E94690C89
:101E400049C0E4E9F1E086E0DF011D928A95E9F7F7
:101E50001BC0EE2009F462CF4D875E878D859E857D
:101E60000E94B30CF82E882309F458CF86E0F801BD
:101E7000A4E9B1E001900D928A95E1F784E991E03F
:101E80000E948F080E94270D0E94190D23C04D87C4
:101E90005E878D859E850E944D12292F22952F7079
:101EA000223028F49F7039F0811105C00BC0243016
:101EB00028F49F7049F4805E883020F0C8010E94A9
:101EC000690CBF2CFB2C06C0D80115969C91907F05
:101ED00091F7F8CF8F2D61960FB6F894DEBF0FBE45
:101EE000CDBFDF91CF911F910F91FF90EF90DF90C9
:101EF000CF90BF90AF9008951F93CF93DF93CDB74E
:101F0000DEB72C970FB6F894DEBF0FBECDBF4F8360
:101F1000588769877A878B879C87CE0107960E94AE
:101F20008F0D8823D1F09F8188852A853B85232BBF
:101F300031F08F3F31F481E09F3F19F403C081E01D
:101F400001C080E080FD47C04F81588569857A8552
:101F50008B859C850E94E80C3EC086E0FE0137968A
:101F6000DE01119601900D928A95E1F7FF81E885D7
:101F70006A857B856115710531F0EF3F31F481E0B1
:101F8000FF3F19F403C081E001C080E080FD23C061
:101F90002091630130E0C901019687709927409133
:101FA000620150E084179507F1F1F983EA837D839C
:101FB0006C8396E0929FD001939FB00D1124AC5991
:101FC000BE4FFE01319601900D929A95E1F78093F4
:101FD00063010E94F80C16E0809162019091630108
:101FE000891771F1189FC00111248C599E4F0E94CE
:101FF0008F0D882329F1E09162011E9FF0011124C9
:10200000EC59FE4F408151816281738184819581B9
:102010000E94E80C8091620190E0019687709927F8
:1020200080936201D9CF0E94AF0C1092630110928D
:102030006201E4E9F1E086E0DF011D928A95E9F7AB
:102040002C960FB6F894DEBF0FBECDBFDF91CF91B7
:102050001F910895EF92FF920F931F93CF93DF93F9
:102060008C01892B09F46CC0F12CEE24E394E80177
:102070002196F8018491843740F4843008F051C0EF
:10208000813081F0823019F15BC0853709F444C09A
:10209000A8F19CE7980F903708F052C08F770E9404
:1020A000930941C00E5F1F4FFE01849190E2980F8B
:1020B000983050F48770FE2D01C0FF0F8A95EAF723
:1020C0008F2F0E94021314C00E9495082DC00E5F2E
:1020D0001F4FFE01849190E2980F983060F4877052
:1020E000FE2D01C0FF0F8A95EAF78F2F0E9408137B
:1020F0000E94AC1219C00E94930916C00E5F1F4FB8
:10210000FE01C491CC2381F08FE99FE00197F1F7A4
:1021100000C00000C150F6CF0E5F1F4FFE01F490CB
:1021200003C00E9495088E018F2D882309F49FCF4C
:10213000EFE9FFE03197F1F700C000008150F5CFE3
:10214000DF91CF911F910F91FF90EF900895089527
:1021500008950C94A8100C94A9100E94AB106093E1
:10216000C1017093C2018093C3019093C4010C9488
:10217000970C0C94AD100F931F930091C101109117
:10218000C2012091C3013091C401602B712B822BBD
:10219000932B1F910F910C94AD100F931F930091EF
:1021A000C1011091C2012091C3013091C40160238B
:1021B0007123822393231F910F910C94AD100F93E1
:1021C0001F930091C1011091C2012091C301309170
:1021D000C40160277127822793271F910F910C94C8
:1021E000AD100C94A8100E94F1106093BD01709383
:1021F000BE018093BF019093C0010C94970C60E0E6
:1022000070E0CB010C94F3100F931F9341E050E06A
:1022100060E070E08A019B0104C0000F111F221FC3
:10222000331F8A95D2F7C901B8011F910F910C9401
:10223000F3100F931F9341E050E060E070E004C0A2
:10224000440F551F661F771F8A95D2F78091BD01F5
:102250009091BE01A091BF01B091C0018A019B0184
:10226000082B192B2A2B3B2BC901B8011F910F9169
:102270000C94F3100F931F9341E050E060E070E086
:1022800004C0440F551F661F771F8A95D2F74095EB
:102290005095609570958091BD019091BE01A0917F
:1022A000BF01B091C0018A019B01082319232A2391
:1022B0003B23C901B8011F910F910C94F3100F93A8
:1022C0001F9341E050E060E070E004C0440F551FF0
:1022D000661F771F8A95D2F78091BD019091BE014C
:1022E000A091BF01B091C0018A019B010827192765
:1022F0002A273B27C901B8011F910F910C94F310B5
:102300000F931F930091BD011091BE012091BF0159
:102310003091C001602B712B822B932B1F910F9159
:102320000C94F3100F931F930091BD011091BE0107
:102330002091BF013091C001602371238223932338
:102340001F910F910C94F3100F931F930091BD01F7
:102350001091BE012091BF013091C001602771270B
:10236000822793271F910F910C94F31008952AE070
:10237000929F800D1124E82FE695E695E6958770EB
:1023800051E001C0550F8A95EAF785E0E89FF0011A
:102390001124E656FE4F20E030E070E04081CB0192
:1023A000022E02C0969587950A94E2F78170819576
:1023B00084278523842781932F5F3F4F2530310564
:1023C00069F708952AE0929F800D1124682F669581
:1023D00066956695982F977085E0689FB0011124E7
:1023E00040E050E080E0FB01E40FF51FE656FE4FB1
:1023F000208130E0092E02C0369527950A94E2F735
:1024000021703327042E01C0220F0A94EAF7822B91
:102410004F5F5F4F4530510531F70895CF92DF92FE
:10242000EF92FF920F931F93CF93DF938C01C09095
:10243000BD01D090BE01E090BF01F090C00180913D
:10244000C1019091C201A091C301B091C401C82AF9
:10245000D92AEA2AFB2ACFE1D0E0D701C6010C2E07
:1024600004C0B695A795979587950A94D2F780FDF5
:1024700004C0219790F780E007C0B8018C2F0E941C
:10248000E8030197B1F38C2FDF91CF911F910F914A
:10249000FF90EF90DF90CF900895CF93DF93EC0102
:1024A0000E940E12BE010E94E803DF91CF910895B1
:1024B0001F93CF93DF93EB0190916101992321F05A
:1024C000CB010E944D1213C0882349F0CB010E941A
:1024D0000E12182F682FCE010E94B71104C0CB0135
:1024E0000E94E211182FBE01812F0E94E803DF91A4
:1024F000CF911F9108958091C5018595859585950A
:1025000008958091C5018770089598E0899F900192
:102510001124262B2093C5010C9419112091C5017B
:10252000809582238093C501982F977069F430E0DD
:10253000482F082E000C550B2417350729F08595D8
:10254000859585950C943A1108959091C5019770E1
:1025500081E009F480E00895E0910001F09101012B
:102560008091D1018083E0910001F091010190817F
:102570008091D001892B8083E0910001F0910101CD
:1025800090818091CF01892B80838091C60188231F
:1025900081F0E0910001F09101019081892B80830D
:1025A00080910001909101010E9495138111109278
:1025B000C60180910001909101010C944E07809119
:1025C000D10108959091D101892B8093D101089573
:1025D00080959091D10189238093D1010895109223
:1025E000D10108959091D001892B8093D001089555
:1025F00080959091D00189238093D0010895109205
:10260000D00108959091CF01892B8093CF01089537
:1026100080959091CF0189238093CF0108951092E6
:10262000CF0108958093C60108951092C6010895C0
:102630008091C601089580E090E00E94BB1F21E0D8
:102640008D3E9E4F09F020E0822F089582E090E0B9
:102650000C94B31F682F82E090E00C94C11F83E0BC
:1026600090E00C94B31F682F83E090E00C94C11F9E
:1026700084E090E00C94B31F682F84E090E00C9409
:10268000C11FAB01BC018FE090E00C94D31FAB01E4
:10269000BC0183E190E00C94D31F60E070E0CB01BB
:1026A0000C94471360E070E0CB010E9441130C943E
:1026B0004D136DEE7EEF80E090E00E94DF1F60E042
:1026C00082E090E00E94C11F60E083E090E00E9401
:1026D000C11F1092C1011092C2011092C301109249
:1026E000C40160E084E090E00E94C11F60E085E0EA
:1026F00090E00E94C11F60E086E090E00E94C11F50
:102700006FEF87E090E00E94C11F40E050E0BA0107
:1027100088E090E00E94D31F60E08DE090E00E948E
:10272000C11F0C9452130C945913FC0131969C0157
:10273000285F3F4F80E0919191118F5FE217F3077F
:10274000D1F708959C01FC0132969FEF80E0419102
:10275000461789F09F3F19F4411101C0982F8F5FF0
:102760008630A9F79F3F39F0F901E90FF11D97FD78
:10277000FA956283089508959C012A5F3F4FFC01FA
:102780004281461301C01282019682179307B9F75E
:1027900008950C94A2130C94BC13FC013196089676
:1027A0001192E817F907E1F7089508950C94D513ED
:1027B0000C94D513CF930E94D8130E947C060E94DC
:1027C000D613C0E08C2F0E943307892B29F4CF5FEA
:1027D000C530C1F780E001C081E0CF9108950C942D
:1027E000D5130C94EF130E94F1138091F4018430FF
:1027F00049F11092D30120E488E190E00FB6F894FB
:10280000A895809360000FBE2093600080E00E9436
:102810004C020E94F11383B7817F846083BF83B72A
:10282000816083BF7894889583B78E7F83BF0FB60E
:10283000F894A89580916000886180936000109260
:1028400060000FBE08950C94D5130E94AF0C0E9437
:1028500042070E944C020C9423141F920F920FB651
:102860000F9211248F939F93AF93BF938091D301C5
:10287000811113C08091EA019091EB01A091EC01CC
:10288000B091ED014196A11DB11D8093EA01909395
:10289000EB01A093EC01B093ED01BF91AF919F913B
:1028A0008F910F900FBE0F901F90189582E084BDFE
:1028B00093E095BD9AEF97BD80936E0008952FB772
:1028C000F8948091EA019091EB01A091EC01B09114
:1028D000ED012FBF0895CF92DF92EF92FF920F93F9
:1028E0001F932FB7F8944091EA015091EB0160914A
:1028F000EC017091ED012FBF6A017B01EE24FF24F2
:102900008C0120E030E0C016D106E206F30610F498
:10291000415051099A01281B390BC9011F910F9190
:10292000FF90EF90DF90CF90089578941F920F92D0
:102930000FB60F9211248F939F93AF93BF93809103
:10294000EA019091EB01A091EC01B091ED010196AB
:10295000A11DB11D8093EA019093EB01A093EC01BE
:10296000B093ED01BF91AF919F918F910F900FBEEA
:102970000F901F90189581E08093E00080E2809393
:10298000D8001092C9008FE19EE40197F1F700C0D2
:10299000000087E090EBDC018093FD019093FE0145
:1029A000A093FF01B09300029CE088E10FB6F89479
:1029B000A895809360000FBE90936000FFCFAF9208
:1029C000BF92CF92DF92EF92FF920F931F93CF931C
:1029D000C0E0CC24C394D12CE82EF12C8C2F0E9483
:1029E00033075C0100E010E0C601002E02C0880F32
:1029F000991F0A94E2F78A219B21892B31F40F5FFA
:102A00001F4F0A30110581F70AC0602F7C2F80E02C
:102A10000E94CD03E816F90691F781E004C0CF5F6C
:102A2000C530E1F680E0CF911F910F91FF90EF90BC
:102A3000DF90CF90BF90AF900895CF93C82F8CE2D6
:102A40000E94DF14882321F08C2FCF910C94DF1487
:102A500080E0CF910895CF930E941B13811102C093
:102A60000E949313C5E6C15049F00E947C068FE393
:102A70009CE90197F1F700C00000F5CF89E20E94C0
:102A80001D1581110FC18AE20E941D1581110E943E
:102A9000931385E00E941D1581110E94BB140E94B2
:102AA00026138093D20187E00E941D158823A9F187
:102AB0008BE10E941D15882351F08091D20181FB8A
:102AC000222720F991E0922790FB81F90EC08EE039
:102AD0000E941D15882361F08091D20182FB22277C
:102AE00020F991E0922790FB82F98093D20115C0E2
:102AF00080E10E941D159091D201882341F093FB43
:102B0000222720F981E0822780FB93F904C0892FD6
:102B1000809580FB90F99093D2018091D2010E9420
:102B20002A130E94381390E09093EF018093EE01F6
:102B300080EE0E941D15882341F08091EE01982FB0
:102B4000909590FB80F98093EE0189E30E941D151A
:102B5000882359F08091EE0181FB222720F991E032
:102B6000922790FB81F98093EE0182EE0E941D1561
:102B7000882359F08091EE0182FB222720F991E011
:102B8000922790FB82F98093EE0186EE0E941D153C
:102B9000882359F08091EE0183FB222720F991E0F0
:102BA000922790FB83F98093EE0183EE0E941D151E
:102BB000882359F08091EE0184FB222720F991E0CF
:102BC000922790FB84F98093EE0185E30E941D1506
:102BD000882359F08091EE0185FB222720F991E0AE
:102BE000922790FB85F98093EE0181E30E941D15E9
:102BF000882359F08091EE0186FB222720F991E08D
:102C0000922790FB86F98093EE0181E10E941D15C9
:102C1000882359F08091EE0187FB222720F991E06B
:102C2000922790FB87F98093EE018091EE010E943C
:102C30003C1387E20E941D15C82F8EE10E941D15CE
:102C40008111C2608FE10E941D158111C46080E274
:102C50000E941D158111C86081E20E941D1581111D
:102C6000C06182E20E941D158111C06283E20E9450
:102C70001D158111C06484E20E941D15882311F086
:102C8000C06802C0CC2329F08C2F0E9433136C2F14
:102C900003C00E942F13682F70E080E090E0CF9176
:102CA0000C94B910CF9108958091D60180FF0BC08C
:102CB0006091050185E0689FB001112475956795C5
:102CC000759567952BC081FF09C06091050185E06E
:102CD000689FB00111247595679520C082FF07C0D9
:102CE0006091050185E0689FB001112417C09091A3
:102CF000D7019923D1F060910401961788F72091AC
:102D0000050185E0289F90011124929FA001939FC7
:102D1000500D112470E0CA010E94821F60387105B5
:102D200040F46115710519F406C065E070E0862F66
:102D300008958FE7089581E008958091D60180FF7E
:102D400008C06091030170E075956795759567956A
:102D500021C081FF06C06091030170E07595679501
:102D600019C082FF04C06091030170E010C090910F
:102D7000D701992399F0609102019617A0F78091ED
:102D80000301899FC001112470E00E94821F6038F6
:102D9000710540F46115710519F406C061E070E039
:102DA000862F08958FE7089581E00895803F21F4EC
:102DB0000E945416819504C0813F29F40E94541644
:102DC0008093DA010895823F21F40E945416819580
:102DD00004C0833F29F40E9454168093D9010895BA
:102DE000893F19F40E949D1605C08A3F31F40E9464
:102DF0009D1681958093DB0108958B3F21F40E94FD
:102E00009D16819504C08C3F29F40E949D168093E5
:102E1000DC010895843F21F48091D801816017C0BE
:102E2000853F21F48091D801826011C0863F21F452
:102E30008091D80184600BC0873F21F48091D80134
:102E4000886005C0883F31F48091D801806180930B
:102E5000D80108958D3F21F48091D60181600BC087
:102E60008E3F21F48091D601826005C08F3F29F406
:102E70008091D60184608093D6010895803F39F413
:102E80008091DA0187FF6CC01092DA0169C0813F3E
:102E900029F48091DA011816BCF362C09091D9012F
:102EA000823F29F497FF5CC01092D90159C0833F3B
:102EB00019F41916CCF354C0893F41F48091DB0119
:102EC00018160CF04DC01092DB014AC08A3F29F45D
:102ED0008091DB0187FF44C0F6CF8B3F39F48091AE
:102EE000DC0187FF3DC01092DC013AC08C3F29F421
:102EF0008091DC011816BCF333C0843F21F480912B
:102F0000D8018E7F17C0853F21F48091D8018D7F35
:102F100011C0863F21F48091D8018B7F0BC0873F81
:102F200021F48091D801877F05C0883F31F48091DA
:102F3000D8018F7E8093D80113C08D3F21F48091FA
:102F4000D6018E7F0BC08E3F21F48091D6018D7FFC
:102F500005C08F3F29F48091D6018B7F8093D601E5
:102F60008091D90181110EC08091DA0181110AC0CE
:102F70008091DB01811106C08091DC01811102C0CA
:102F80001092D701089588ED91E00E9459070E94A0
:102F90005F149093D5018093D40108951F93CF932C
:102FA000DF938091D4019091D5010E946B14AC0104
:102FB0009091D701992321F02091060130E006C0BD
:102FC000209107018AE0289F90011124421753079E
:102FD00008F477C08091D901C091DA01D091DB016A
:102FE0001091DC01811107C0C11167C0D11165C00A
:102FF000111163C066C09F3F19F09F5F9093D70186
:10300000181624F40E9454168093D9018091D90196
:1030100087FF05C00E94541681958093D9011C1624
:1030200024F40E9454168093DA018091DA0187FF1C
:1030300005C00E94541681958093DA013091D90120
:103040003323C1F02091DA012223A1F045EB3403B0
:10305000C0011124892F911101C081E08093D90111
:1030600035EB2303C0011124892F911101C081E0A8
:103070008093DA011D1624F40E949D168093DB01D3
:103080008091DB0187FF05C00E949D16819580938A
:10309000DB01111624F40E949D168093DC018091BF
:1030A000DC0187FF05C00E949D1681958093DC019D
:1030B000DF91CF911F910C94C3179F3F09F09DCFD3
:1030C000AECFDF91CF911F910895E8EDF1E085E05B
:1030D000DF011D928A95E9F71092D7011092D6016F
:1030E00008958091E50108950F931F93CF93DF9387
:1030F00000D01F92CDB7DEB78C010E94C01A82307B
:1031000011F0843019F583E089831B830A8380934F
:10311000E9008FEF9091E800815095FD06C095ED94
:103120009A95F1F700008111F5CF8091E80085FFB5
:103130000DC040E050E063E070E0CE0101960E94D7
:10314000DD1A8091E8008E778093E8000F900F9051
:103150000F90DF91CF911F910F910895CF93DF933F
:1031600000D01F92CDB7DEB72091F401243031F5A5
:1031700022E02983805891099B838A8383E080938E
:10318000E9008FEF9091E800815095FD06C095ED24
:103190009A95F1F700008111F5CF8091E80085FF45
:1031A0000DC040E050E063E070E0CE0101960E9467
:1031B000DD1A8091E8008E778093E8000F900F90E1
:1031C0000F90DF91CF910895CF93DF93EC010E9490
:1031D000C01A823011F08430F9F482E08093E90063
:1031E0008FEF9091E800815095FD06C095ED9A957E
:1031F000F1F700008111F5CF8091E80085FF0CC048
:1032000040E050E065E070E0CE010E94DD1A809160
:10321000E8008E778093E800DF91CF910895CF93F7
:10322000DF93EC010E94C01A823011F0843039F52E
:1032300081E08093E9008FEF9091E800815095FD47
:1032400006C095ED9A95F1F700008111F5CF8091B8
:10325000E80085FF14C040E050E068E070E0CE0177
:103260000E94DD1A8091E8008E778093E80088E064
:10327000FE01ADEDB1E001900D928A95E1F7DF918D
:10328000CF9108958091F301811109C00E946A1CB9
:103290000E94CC1C8091E20084608093E20008953B
:1032A0001092F3010895089508950C94251442E0B6
:1032B00061EC81E00E94E31B42E061EC82E00E944D
:1032C000E31B42E061EC83E00C94E31B8091F60188
:1032D000833009F453C030F4813071F0823009F446
:1032E0008CC008958A3009F478C08B3009F45EC030
:1032F000893009F09AC020C08091F501813A09F027
:1033000094C08091E800877F8093E8008091F90164
:103310009091FA01892B21F468E08DED91E003C0D2
:1033200060E080E090E070E00E94281B8091E8005F
:103330008B778093E80008958091F501813209F040
:1033400074C08091F9019091FA01892B09F06DC048
:103350008091E800877F8093E8008091E80082FDFB
:1033600005C08091F4018111F8CF5FC08091F10018
:103370008093E5018091E8008B7753C08091F5013F
:10338000813A09F052C08091F9019091FA01892B9C
:1033900009F04BC08091E800877F8093E80080911E
:1033A000E80080FFFCCF8091120136C08091F501CA
:1033B0008132D9F58091F9019091FA01892BA9F513
:1033C0008091E800877F8093E8000E94181C80911C
:1033D000F701809312010C94AF0C8091F5018132BA
:1033E00021F58091E800877F8093E8000E94181CF7
:1033F0008091F8018093E60108958091F501813A6A
:10340000A1F48091E800877F8093E8008091E80034
:1034100080FFFCCF8091E6018093F1008091E8006D
:103420008E778093E8000C94181C089584B7877FEA
:1034300084BF0FB6F894A89580916000886180934E
:103440006000109260000FBE80E8809361001092CF
:1034500061000E9498070E946A1C0E94CC1C809107
:10346000E20084608093E20078940E94671F0E94CB
:103470009E0788E091E00E943D078091F40185302D
:1034800069F40E94F3138091F2018823B1F30E9442
:10349000DA13882391F30E94C71AEFCF0E94A40782
:1034A000ECCF0C94531A292F332723303105C9F060
:1034B00060F42130310581F02230310509F047C038
:1034C00084E590E020E932E046C02132310511F177
:1034D0002232310561F13BC082E190E024EE32E01E
:1034E0003AC099278130910561F040F08230910512
:1034F00059F0039761F5E6E6F2E008C0ECE8F2E087
:1035000005C0E8E7F2E002C0ECE6F2E0849190E06A
:103510009F0121C063307105D0F4660F771FFB0156
:10352000E55DFE4F2081318189E090E014C0633079
:10353000710568F4FB01EE0FFF1FEB5DFE4F20816C
:103540003181FB01EE5DFE4F808190E004C080E0A0
:1035500090E020E030E0FA0131832083089508955F
:10356000CF93C82F0E94AF1AC093E701CF9108955F
:103570008091F401843011F081E0089582E0089593
:103580008091E701811102C00C94B81A089584E17A
:1035900089BD86E189BD09B400FEFDCF8091D800C8
:1035A0008F7D8093D8008091E00082608093E0005E
:1035B0008091E00081FDFCCF0895CF92DF92EF92E1
:1035C000FF920F931F93CF93DF93EC018B017A014E
:1035D0000E94371C811133C0E114F10439F0F70166
:1035E00080819181081B190BC80FD91FC12CD12CC8
:1035F0000115110519F18091E80085FD16C0809133
:10360000E8008E778093E800E114F10449F0F701B7
:1036100080819181C80ED91ED182C08285E00FC001
:103620000E94371C882321F30AC089918093F100FE
:1036300001501109FFEFCF1ADF0ADACF80E0DF91E6
:10364000CF911F910F91FF90EF90DF90CF90089551
:103650002091FB013091FC012617370748F06115D6
:10366000710539F42091E8002E772093E80001C01D
:10367000B901FC0120E06115710569F18091F40147
:103680008823E1F18530E1F18091E80083FD3AC0C3
:103690008091E80082FD2CC08091E80080FFEBCF94
:1036A0008091F2009091F3006115710551F088301E
:1036B000910538F421912093F10061507109019630
:1036C000F3CF21E0089709F020E08091E8008E77A1
:1036D0008093E800D0CF2111D1CF0AC08091F401AE
:1036E000882361F0853061F08091E80083FD0AC095
:1036F0008091E80082FFF2CF80E0089582E0089593
:1037000083E0089581E008952091FB013091FC0150
:103710002617370748F06115710539F42091E80044
:103720002E772093E80001C0B901FC0120E061156B
:10373000710581F18091F401882309F43EC0853040
:1037400009F43DC08091E80083FD3BC08091E80012
:1037500082FD2DC08091E80080FFE9CF8091F200CA
:103760009091F3006115710559F08830910540F48E
:1037700024912093F1003196615071090196F2CFA6
:1037800021E0089709F020E08091E8008E7780938F
:10379000E800CDCF2111CECF0AC08091F40188235B
:1037A00061F0853061F08091E80083FD0AC080916E
:1037B000E80082FFF2CF80E0089582E0089583E080
:1037C000089581E00895982F973068F59093E90067
:1037D000981739F07091EC002091ED005091F000B5
:1037E00003C0242F762F50E021FD02C09F5FECCF55
:1037F0003091EB003E7F3093EB003091ED003D7F48
:103800003093ED003091EB0031603093EB0070931A
:10381000EC002093ED005093F0002091EE0027FD86
:10382000E5CF80E008958F708093E90081E00895EE
:103830008091F50187FF11C08091E80082FD05C0ED
:103840008091F4018111F8CF11C08091E8008B774D
:103850000BC08091F401882349F08091E80080FF3B
:10386000F8CF8091E8008E778093E800089520914A
:10387000E4003091E50095E64091EC00842F8170E2
:1038800040FF23C08091E80080FD1DC08091F401BD
:10389000882399F0853099F08091EB0085FD11C067
:1038A0004091E4005091E5002417350729F3915029
:1038B00011F09A01E1CF84E0089582E0089583E059
:1038C000089581E0089580E008954091E80042FF66
:1038D000DDCF08950E94DB1C0E94E31CE0EEF0E0C7
:1038E000808181608083E8EDF0E080818F77808344
:1038F00019BCA7EDB0E08C918E7F8C9380818F7E78
:1039000080831092F30108950F931F93CF93DF9359
:103910000E94DB1C0E94E31CC8EDD0E088818F77F9
:10392000888388818068888388818F7D8883E7ED9C
:10393000F0E080818068808319BC1092F4011092BD
:10394000F0011092F2011092F10100EE10E0F80186
:1039500080818B7F808388818160888342E060E002
:1039600080E00E94E31BE1EEF0E080818E7F8083A7
:10397000E2EEF0E0808181608083808188608083D6
:10398000F80180818E7F8083888180618883DF91C8
:10399000CF911F910F910895E8EDF0E080818F7E27
:1039A0008083E7EDF0E080818160808381E0809317
:1039B000F3010C94841CE8EDF0E080818C7F80831F
:1039C0001092E20008951092DA001092E10008953A
:1039D0001F920F920FB60F9211240BB60F922F93D6
:1039E0003F934F935F936F937F938F939F93AF9387
:1039F000BF93EF93FF938091E10082FF0BC0809112
:103A0000E20082FF07C08091E1008B7F8093E1009C
:103A10000E94661F8091DA0080FF1FC08091D8004D
:103A200080FF1BC08091DA008E7F8093DA00809146
:103A3000D90080FF0DC084E189BD86E189BD09B44C
:103A400000FEFDCF81E08093F4010E94421905C081
:103A500019BC1092F4010E9450198091E10080FF7E
:103A600019C08091E20080FF15C08091E2008E7F36
:103A70008093E2008091E20080618093E200809177
:103A8000D80080628093D80019BC85E08093F4014F
:103A90000E9454198091E10084FF30C08091E200BF
:103AA00084FF2CC084E189BD86E189BD09B400FE94
:103AB000FDCF8091D8008F7D8093D8008091E10068
:103AC0008F7E8093E1008091E2008F7E8093E20000
:103AD0008091E20081608093E2008091F001882370
:103AE00011F084E007C08091E30087FD02C081E00F
:103AF00001C083E08093F4010E9455198091E10098
:103B000083FF29C08091E20083FF25C08091E100FE
:103B1000877F8093E10082E08093F4011092F001AE
:103B20008091E1008E7F8093E1008091E2008E7FA2
:103B30008093E2008091E20080618093E20042E0A5
:103B400060E080E00E94E31B8091F0008860809339
:103B5000F0000E945319FF91EF91BF91AF919F9197
:103B60008F917F916F915F914F913F912F910F9026
:103B70000BBE0F900FBE0F901F9018951F920F92C3
:103B80000FB60F9211240BB60F922F933F934F93C2
:103B90005F936F937F938F939F93AF93BF93CF93D5
:103BA000DF93EF93FF93C091E900CF708091EC0019
:103BB000D82FD17080FDD0E81092E9008091F000FC
:103BC000877F8093F00078940E94061E1092E9008F
:103BD0008091F00088608093F000CD2BCF70C0936F
:103BE000E900FF91EF91DF91CF91BF91AF919F914C
:103BF0008F917F916F915F914F913F912F910F9096
:103C00000BBE0F900FBE0F901F9018951F93CF9370
:103C1000DF93CDB7DEB7AA970FB6F894DEBF0FBE1D
:103C2000CDBFE5EFF1E08091F100819321E0ED3F20
:103C3000F207C9F70E9466198091E80083FF2EC140
:103C40008091F5019091F601492F50E04A305105DD
:103C500008F024C1FA01EF56FF4F0C94961F8038EC
:103C600021F0823809F01AC108C08091F1019091C9
:103C7000F201992389F082600FC08091F9018F7061
:103C8000873008F00BC18093E9008091EB0085FB41
:103C9000882780F91092E9009091E800977F90932F
:103CA000E8008093F1001092F100D1C0282F2D7F01
:103CB00009F0F4C0882319F0823061F0EFC08091E0
:103CC000F701813009F0EAC0933009F080E0809379
:103CD000F2012EC08091F70181112AC08091F90173
:103CE0008F702FEF280F263008F0D8C08093E9009E
:103CF0002091EB0020FF1CC0933021F48091EB0059
:103D0000806214C09091EB0090619093EB0021E0F1
:103D100030E0A90102C0440F551F8A95E2F7409395
:103D2000EA001092EA008091EB0088608093EB003B
:103D30001092E9008091E800877F8093E8000E945C
:103D4000181CACC08111AAC01091F7011F77809197
:103D5000E3008078812B8093E3008091E800877FE7
:103D60008093E8000E94181C8091E80080FFFCCF3F
:103D70008091E30080688093E300111102C082E02B
:103D800001C083E08093F40189C08058823008F03C
:103D900085C08091F7019091F8018C3D53E0950723
:103DA00079F583E08A838AE289834FB7F894DE014C
:103DB000139620E03EE051E2E32FF0E050935700ED
:103DC000E49120FF03C0E295EF703F5FEF708E2F0C
:103DD00090E0EA3010F0C79601C0C0968D939D9395
:103DE0002F5F243149F74FBF8091E800877F809390
:103DF000E8006AE270E0CE0101960E94281B16C01E
:103E00006091F9017091FA01AE014F5F5F4F0E941E
:103E1000511ABC01892B09F441C09091E800977FA9
:103E20009093E80089819A810E94841B8091E80028
:103E30008B778093E80032C0803881F58091E8006C
:103E4000877F8093E8008091F0018093F10080915A
:103E5000E8008E7772CF811121C08091F701909197
:103E6000F80199270297D4F48091E800877F809326
:103E7000E8008091F7018093F0010E94181C809166
:103E8000F001811106C08091E30087FD02C081E04E
:103E900001C084E08093F4010E9457198091E800EA
:103EA00083FF0AC08091E800877F8093E8008091BB
:103EB000EB0080628093EB00AA960FB6F894DEBF09
:103EC0000FBECDBFDF91CF911F9108950895CF937D
:103ED0008091F4018823A1F0C091E900CF70909106
:103EE000EC00892F817090FD80E8C82B1092E900CA
:103EF0008091E80083FD0E94061ECF70C093E90008
:103F0000CF91089597FB072E16F4009407D077FD04
:103F100009D00E949F1F07FC05D03EF49095819523
:103F20009F4F0895709561957F4F0895EE0FFF1F85
:103F30000024001C0BBE0790F691E02D0994AA1BEB
:103F4000BB1B51E107C0AA1FBB1FA617B70710F084
:103F5000A61BB70B881F991F5A95A9F780959095B6
:103F6000BC01CD010895F999FECF92BD81BDF89AAB
:103F7000992780B50895A8E1B0E042E050E00C94A4
:103F8000E71F262FF999FECF92BD81BDF89A0197C0
:103F900000B4021639F01FBA20BD0FB6F894FA9A91
:103FA000F99A0FBE08950396272F0E94C21F0E9400
:103FB000C11F252F0E94C21F242F0C94C21F0196DF
:103FC000272F0E94C21F0C94C11FDC01CB01FC01F2
:103FD000F999FECF06C0F2BDE1BDF89A319600B462
:0E3FE0000D9241505040B8F70895F894FFCF6D
:103FEE00C7012808140A321E71180F19E418AE18EA
:103FFE00741801F2F1F0C634C7303133326766659A
:10400E006463404D3679032C03F602A202BB02D440
:02401E0002009E
:00000001FF
